{
  "contractName": "QuadraticFundingDAO",
  "abi": [
    {
      "inputs": [
        {
          "internalType": "uint256",
          "name": "_fundingStartTime",
          "type": "uint256"
        },
        {
          "internalType": "uint256",
          "name": "_fundingEndTime",
          "type": "uint256"
        }
      ],
      "stateMutability": "nonpayable",
      "type": "constructor"
    },
    {
      "anonymous": false,
      "inputs": [
        {
          "indexed": false,
          "internalType": "uint256",
          "name": "id",
          "type": "uint256"
        },
        {
          "indexed": false,
          "internalType": "address",
          "name": "contributor",
          "type": "address"
        },
        {
          "indexed": false,
          "internalType": "uint256",
          "name": "amount",
          "type": "uint256"
        }
      ],
      "name": "ContributionMade",
      "type": "event"
    },
    {
      "anonymous": false,
      "inputs": [
        {
          "indexed": false,
          "internalType": "uint256",
          "name": "id",
          "type": "uint256"
        },
        {
          "indexed": false,
          "internalType": "uint256",
          "name": "amount",
          "type": "uint256"
        }
      ],
      "name": "FundsDistributed",
      "type": "event"
    },
    {
      "anonymous": false,
      "inputs": [
        {
          "indexed": true,
          "internalType": "address",
          "name": "previousOwner",
          "type": "address"
        },
        {
          "indexed": true,
          "internalType": "address",
          "name": "newOwner",
          "type": "address"
        }
      ],
      "name": "OwnershipTransferred",
      "type": "event"
    },
    {
      "anonymous": false,
      "inputs": [
        {
          "indexed": false,
          "internalType": "uint256",
          "name": "id",
          "type": "uint256"
        },
        {
          "indexed": false,
          "internalType": "address",
          "name": "proposer",
          "type": "address"
        },
        {
          "indexed": false,
          "internalType": "string",
          "name": "title",
          "type": "string"
        },
        {
          "indexed": false,
          "internalType": "string",
          "name": "description",
          "type": "string"
        }
      ],
      "name": "ProposalCreated",
      "type": "event"
    },
    {
      "inputs": [],
      "name": "fundingEndTime",
      "outputs": [
        {
          "internalType": "uint256",
          "name": "",
          "type": "uint256"
        }
      ],
      "stateMutability": "view",
      "type": "function"
    },
    {
      "inputs": [],
      "name": "fundingStartTime",
      "outputs": [
        {
          "internalType": "uint256",
          "name": "",
          "type": "uint256"
        }
      ],
      "stateMutability": "view",
      "type": "function"
    },
    {
      "inputs": [],
      "name": "owner",
      "outputs": [
        {
          "internalType": "address",
          "name": "",
          "type": "address"
        }
      ],
      "stateMutability": "view",
      "type": "function"
    },
    {
      "inputs": [],
      "name": "renounceOwnership",
      "outputs": [],
      "stateMutability": "nonpayable",
      "type": "function"
    },
    {
      "inputs": [],
      "name": "totalFunds",
      "outputs": [
        {
          "internalType": "uint256",
          "name": "",
          "type": "uint256"
        }
      ],
      "stateMutability": "view",
      "type": "function"
    },
    {
      "inputs": [
        {
          "internalType": "address",
          "name": "newOwner",
          "type": "address"
        }
      ],
      "name": "transferOwnership",
      "outputs": [],
      "stateMutability": "nonpayable",
      "type": "function"
    },
    {
      "inputs": [
        {
          "internalType": "string",
          "name": "title",
          "type": "string"
        },
        {
          "internalType": "string",
          "name": "description",
          "type": "string"
        }
      ],
      "name": "createProposal",
      "outputs": [],
      "stateMutability": "nonpayable",
      "type": "function"
    },
    {
      "inputs": [
        {
          "internalType": "uint256",
          "name": "proposalId",
          "type": "uint256"
        }
      ],
      "name": "contribute",
      "outputs": [],
      "stateMutability": "payable",
      "type": "function"
    },
    {
      "inputs": [
        {
          "internalType": "uint256",
          "name": "proposalId",
          "type": "uint256"
        }
      ],
      "name": "getProposal",
      "outputs": [
        {
          "internalType": "uint256",
          "name": "id",
          "type": "uint256"
        },
        {
          "internalType": "address",
          "name": "proposer",
          "type": "address"
        },
        {
          "internalType": "string",
          "name": "title",
          "type": "string"
        },
        {
          "internalType": "string",
          "name": "description",
          "type": "string"
        },
        {
          "internalType": "uint256",
          "name": "totalContributions",
          "type": "uint256"
        },
        {
          "internalType": "uint256",
          "name": "contributionCount",
          "type": "uint256"
        }
      ],
      "stateMutability": "view",
      "type": "function"
    },
    {
      "inputs": [
        {
          "internalType": "address",
          "name": "contributor",
          "type": "address"
        }
      ],
      "name": "getContribution",
      "outputs": [
        {
          "internalType": "uint256",
          "name": "",
          "type": "uint256"
        }
      ],
      "stateMutability": "view",
      "type": "function"
    },
    {
      "inputs": [],
      "name": "withdrawExcessFunds",
      "outputs": [],
      "stateMutability": "nonpayable",
      "type": "function"
    },
    {
      "inputs": [],
      "name": "distributeFunds",
      "outputs": [],
      "stateMutability": "nonpayable",
      "type": "function"
    }
  ],
  "bytecode": "0x60806040523480156200001157600080fd5b5060405162001d3d38038062001d3d8339818101604052810190620000379190620001be565b620000576200004b620000b260201b60201c565b620000ba60201b60201c565b8082106200009c576040517f08c379a000000000000000000000000000000000000000000000000000000000815260040162000093906200028c565b60405180910390fd5b81600481905550806005819055505050620002ae565b600033905090565b60008060009054906101000a900473ffffffffffffffffffffffffffffffffffffffff169050816000806101000a81548173ffffffffffffffffffffffffffffffffffffffff021916908373ffffffffffffffffffffffffffffffffffffffff1602179055508173ffffffffffffffffffffffffffffffffffffffff168173ffffffffffffffffffffffffffffffffffffffff167f8be0079c531659141344cd1fd0a4f28419497f9722a3daafe3b4186f6b6457e060405160405180910390a35050565b600080fd5b6000819050919050565b620001988162000183565b8114620001a457600080fd5b50565b600081519050620001b8816200018d565b92915050565b60008060408385031215620001d857620001d76200017e565b5b6000620001e885828601620001a7565b9250506020620001fb85828601620001a7565b9150509250929050565b600082825260208201905092915050565b7f46756e64696e672073746172742074696d65206d757374206265206265666f7260008201527f6520656e642074696d6500000000000000000000000000000000000000000000602082015250565b600062000274602a8362000205565b9150620002818262000216565b604082019050919050565b60006020820190508181036000830152620002a78162000265565b9050919050565b611a7f80620002be6000396000f3fe6080604052600436106100a75760003560e01c80638da5cb5b116100645780638da5cb5b14610196578063968ed600146101c1578063c1cbbca7146101ec578063c7f758a814610208578063f2fde38b1461024a578063fcb67c5b14610273576100a7565b80631df93558146100ac57806321eff7fc146100d75780633a6a4d2e1461011457806365e481e21461012b578063715018a61461015457806374eedd461461016b575b600080fd5b3480156100b857600080fd5b506100c161028a565b6040516100ce9190610e7a565b60405180910390f35b3480156100e357600080fd5b506100fe60048036038101906100f99190610f07565b610290565b60405161010b9190610e7a565b60405180910390f35b34801561012057600080fd5b506101296102d9565b005b34801561013757600080fd5b50610152600480360381019061014d919061107a565b6104d2565b005b34801561016057600080fd5b50610169610673565b005b34801561017757600080fd5b50610180610687565b60405161018d9190610e7a565b60405180910390f35b3480156101a257600080fd5b506101ab61068d565b6040516101b89190611101565b60405180910390f35b3480156101cd57600080fd5b506101d66106b6565b6040516101e39190610e7a565b60405180910390f35b61020660048036038101906102019190611148565b6106bc565b005b34801561021457600080fd5b5061022f600480360381019061022a9190611148565b61092e565b604051610241969594939291906111f4565b60405180910390f35b34801561025657600080fd5b50610271600480360381019061026c9190610f07565b610b11565b005b34801561027f57600080fd5b50610288610b94565b005b60045481565b6000600360008373ffffffffffffffffffffffffffffffffffffffff1673ffffffffffffffffffffffffffffffffffffffff168152602001908152602001600020549050919050565b6102e1610c4a565b6005544211610325576040517f08c379a000000000000000000000000000000000000000000000000000000000815260040161031c906112af565b60405180910390fd5b60006006549050600080600190505b600154811161039757600060026000838152602001908152602001600020905061038161037282600401548360040154610cc890919063ffffffff16565b84610cde90919063ffffffff16565b925050808061038f906112fe565b915050610334565b506000600190505b60015481116104c557600060026000838152602001908152602001600020905060006103dc82600401548360040154610cc890919063ffffffff16565b90506000610405856103f78489610cc890919063ffffffff16565b610cf490919063ffffffff16565b90508260010160009054906101000a900473ffffffffffffffffffffffffffffffffffffffff1673ffffffffffffffffffffffffffffffffffffffff166108fc829081150290604051600060405180830381858888f19350505050158015610471573d6000803e3d6000fd5b507f40d8c854b6d5329fd5fccae04f5a931d7529963fbab81aced7337394e737cb4d8360000154826040516104a7929190611346565b60405180910390a150505080806104bd906112fe565b91505061039f565b5060006006819055505050565b60045442101580156104e657506005544211155b610525576040517f08c379a000000000000000000000000000000000000000000000000000000000815260040161051c906113bb565b60405180910390fd5b61053a60018054610cde90919063ffffffff16565b6001819055506040518060c0016040528060015481526020013373ffffffffffffffffffffffffffffffffffffffff1681526020018381526020018281526020016000815260200160008152506002600060015481526020019081526020016000206000820151816000015560208201518160010160006101000a81548173ffffffffffffffffffffffffffffffffffffffff021916908373ffffffffffffffffffffffffffffffffffffffff160217905550604082015181600201908161060291906115e7565b50606082015181600301908161061891906115e7565b506080820151816004015560a082015181600501559050507fe1a39bb955c12c02b24074e4d2e09a80ed84a64ce9b4454b47456e8a26f96e7560015433848460405161066794939291906116b9565b60405180910390a15050565b61067b610c4a565b6106856000610d0a565b565b60055481565b60008060009054906101000a900473ffffffffffffffffffffffffffffffffffffffff16905090565b60065481565b60045442101580156106d057506005544211155b61070f576040517f08c379a0000000000000000000000000000000000000000000000000000000008152600401610706906113bb565b60405180910390fd5b6000600260008381526020019081526020016000206000015403610768576040517f08c379a000000000000000000000000000000000000000000000000000000000815260040161075f90611758565b60405180910390fd5b600034116107ab576040517f08c379a00000000000000000000000000000000000000000000000000000000081526004016107a2906117ea565b60405180910390fd5b60006107b634610dce565b90506107e1816002600085815260200190815260200160002060040154610cde90919063ffffffff16565b600260008481526020019081526020016000206004018190555061082560016002600085815260200190815260200160002060050154610cde90919063ffffffff16565b600260008481526020019081526020016000206005018190555061089134600360003373ffffffffffffffffffffffffffffffffffffffff1673ffffffffffffffffffffffffffffffffffffffff16815260200190815260200160002054610cde90919063ffffffff16565b600360003373ffffffffffffffffffffffffffffffffffffffff1673ffffffffffffffffffffffffffffffffffffffff168152602001908152602001600020819055506108e934600654610cde90919063ffffffff16565b6006819055507f0a4a91237423e0a1766a761c7cb029311d8b95d6b1b81db1b949a70c98b4e08e8233346040516109229392919061180a565b60405180910390a15050565b6000806060806000806000600260008981526020019081526020016000206000015403610990576040517f08c379a000000000000000000000000000000000000000000000000000000000815260040161098790611758565b60405180910390fd5b600060026000898152602001908152602001600020905080600001548160010160009054906101000a900473ffffffffffffffffffffffffffffffffffffffff168260020183600301846004015485600501548380546109ef9061140a565b80601f0160208091040260200160405190810160405280929190818152602001828054610a1b9061140a565b8015610a685780601f10610a3d57610100808354040283529160200191610a68565b820191906000526020600020905b815481529060010190602001808311610a4b57829003601f168201915b50505050509350828054610a7b9061140a565b80601f0160208091040260200160405190810160405280929190818152602001828054610aa79061140a565b8015610af45780601f10610ac957610100808354040283529160200191610af4565b820191906000526020600020905b815481529060010190602001808311610ad757829003601f168201915b505050505092509650965096509650965096505091939550919395565b610b19610c4a565b600073ffffffffffffffffffffffffffffffffffffffff168173ffffffffffffffffffffffffffffffffffffffff1603610b88576040517f08c379a0000000000000000000000000000000000000000000000000000000008152600401610b7f906118b3565b60405180910390fd5b610b9181610d0a565b50565b610b9c610c4a565b6005544211610be0576040517f08c379a0000000000000000000000000000000000000000000000000000000008152600401610bd7906112af565b60405180910390fd5b6000610bf760065447610e4390919063ffffffff16565b9050610c0161068d565b73ffffffffffffffffffffffffffffffffffffffff166108fc829081150290604051600060405180830381858888f19350505050158015610c46573d6000803e3d6000fd5b5050565b610c52610e59565b73ffffffffffffffffffffffffffffffffffffffff16610c7061068d565b73ffffffffffffffffffffffffffffffffffffffff1614610cc6576040517f08c379a0000000000000000000000000000000000000000000000000000000008152600401610cbd9061191f565b60405180910390fd5b565b60008183610cd6919061193f565b905092915050565b60008183610cec9190611981565b905092915050565b60008183610d0291906119e4565b905092915050565b60008060009054906101000a900473ffffffffffffffffffffffffffffffffffffffff169050816000806101000a81548173ffffffffffffffffffffffffffffffffffffffff021916908373ffffffffffffffffffffffffffffffffffffffff1602179055508173ffffffffffffffffffffffffffffffffffffffff168173ffffffffffffffffffffffffffffffffffffffff167f8be0079c531659141344cd1fd0a4f28419497f9722a3daafe3b4186f6b6457e060405160405180910390a35050565b6000808203610de05760009050610e3e565b60006002600184610df19190611981565b610dfb91906119e4565b905060008390505b80821015610e38578190506002828386610e1d91906119e4565b610e279190611981565b610e3191906119e4565b9150610e03565b80925050505b919050565b60008183610e519190611a15565b905092915050565b600033905090565b6000819050919050565b610e7481610e61565b82525050565b6000602082019050610e8f6000830184610e6b565b92915050565b6000604051905090565b600080fd5b600080fd5b600073ffffffffffffffffffffffffffffffffffffffff82169050919050565b6000610ed482610ea9565b9050919050565b610ee481610ec9565b8114610eef57600080fd5b50565b600081359050610f0181610edb565b92915050565b600060208284031215610f1d57610f1c610e9f565b5b6000610f2b84828501610ef2565b91505092915050565b600080fd5b600080fd5b6000601f19601f8301169050919050565b7f4e487b7100000000000000000000000000000000000000000000000000000000600052604160045260246000fd5b610f8782610f3e565b810181811067ffffffffffffffff82111715610fa657610fa5610f4f565b5b80604052505050565b6000610fb9610e95565b9050610fc58282610f7e565b919050565b600067ffffffffffffffff821115610fe557610fe4610f4f565b5b610fee82610f3e565b9050602081019050919050565b82818337600083830152505050565b600061101d61101884610fca565b610faf565b90508281526020810184848401111561103957611038610f39565b5b611044848285610ffb565b509392505050565b600082601f83011261106157611060610f34565b5b813561107184826020860161100a565b91505092915050565b6000806040838503121561109157611090610e9f565b5b600083013567ffffffffffffffff8111156110af576110ae610ea4565b5b6110bb8582860161104c565b925050602083013567ffffffffffffffff8111156110dc576110db610ea4565b5b6110e88582860161104c565b9150509250929050565b6110fb81610ec9565b82525050565b600060208201905061111660008301846110f2565b92915050565b61112581610e61565b811461113057600080fd5b50565b6000813590506111428161111c565b92915050565b60006020828403121561115e5761115d610e9f565b5b600061116c84828501611133565b91505092915050565b600081519050919050565b600082825260208201905092915050565b60005b838110156111af578082015181840152602081019050611194565b60008484015250505050565b60006111c682611175565b6111d08185611180565b93506111e0818560208601611191565b6111e981610f3e565b840191505092915050565b600060c0820190506112096000830189610e6b565b61121660208301886110f2565b818103604083015261122881876111bb565b9050818103606083015261123c81866111bb565b905061124b6080830185610e6b565b61125860a0830184610e6b565b979650505050505050565b7f46756e64696e6720706572696f64206e6f74206f766572000000000000000000600082015250565b6000611299601783611180565b91506112a482611263565b602082019050919050565b600060208201905081810360008301526112c88161128c565b9050919050565b7f4e487b7100000000000000000000000000000000000000000000000000000000600052601160045260246000fd5b600061130982610e61565b91507fffffffffffffffffffffffffffffffffffffffffffffffffffffffffffffffff820361133b5761133a6112cf565b5b600182019050919050565b600060408201905061135b6000830185610e6b565b6113686020830184610e6b565b9392505050565b7f4e6f742077697468696e2066756e64696e6720706572696f6400000000000000600082015250565b60006113a5601983611180565b91506113b08261136f565b602082019050919050565b600060208201905081810360008301526113d481611398565b9050919050565b7f4e487b7100000000000000000000000000000000000000000000000000000000600052602260045260246000fd5b6000600282049050600182168061142257607f821691505b602082108103611435576114346113db565b5b50919050565b60008190508160005260206000209050919050565b60006020601f8301049050919050565b600082821b905092915050565b60006008830261149d7fffffffffffffffffffffffffffffffffffffffffffffffffffffffffffffffff82611460565b6114a78683611460565b95508019841693508086168417925050509392505050565b6000819050919050565b60006114e46114df6114da84610e61565b6114bf565b610e61565b9050919050565b6000819050919050565b6114fe836114c9565b61151261150a826114eb565b84845461146d565b825550505050565b600090565b61152761151a565b6115328184846114f5565b505050565b5b818110156115565761154b60008261151f565b600181019050611538565b5050565b601f82111561159b5761156c8161143b565b61157584611450565b81016020851015611584578190505b61159861159085611450565b830182611537565b50505b505050565b600082821c905092915050565b60006115be600019846008026115a0565b1980831691505092915050565b60006115d783836115ad565b9150826002028217905092915050565b6115f082611175565b67ffffffffffffffff81111561160957611608610f4f565b5b611613825461140a565b61161e82828561155a565b600060209050601f831160018114611651576000841561163f578287015190505b61164985826115cb565b8655506116b1565b601f19841661165f8661143b565b60005b8281101561168757848901518255600182019150602085019450602081019050611662565b868310156116a457848901516116a0601f8916826115ad565b8355505b6001600288020188555050505b505050505050565b60006080820190506116ce6000830187610e6b565b6116db60208301866110f2565b81810360408301526116ed81856111bb565b9050818103606083015261170181846111bb565b905095945050505050565b7f50726f706f73616c206e6f7420666f756e640000000000000000000000000000600082015250565b6000611742601283611180565b915061174d8261170c565b602082019050919050565b6000602082019050818103600083015261177181611735565b9050919050565b7f436f6e747269627574696f6e206d75737420626520677265617465722074686160008201527f6e20300000000000000000000000000000000000000000000000000000000000602082015250565b60006117d4602383611180565b91506117df82611778565b604082019050919050565b60006020820190508181036000830152611803816117c7565b9050919050565b600060608201905061181f6000830186610e6b565b61182c60208301856110f2565b6118396040830184610e6b565b949350505050565b7f4f776e61626c653a206e6577206f776e657220697320746865207a65726f206160008201527f6464726573730000000000000000000000000000000000000000000000000000602082015250565b600061189d602683611180565b91506118a882611841565b604082019050919050565b600060208201905081810360008301526118cc81611890565b9050919050565b7f4f776e61626c653a2063616c6c6572206973206e6f7420746865206f776e6572600082015250565b6000611909602083611180565b9150611914826118d3565b602082019050919050565b60006020820190508181036000830152611938816118fc565b9050919050565b600061194a82610e61565b915061195583610e61565b925082820261196381610e61565b9150828204841483151761197a576119796112cf565b5b5092915050565b600061198c82610e61565b915061199783610e61565b92508282019050808211156119af576119ae6112cf565b5b92915050565b7f4e487b7100000000000000000000000000000000000000000000000000000000600052601260045260246000fd5b60006119ef82610e61565b91506119fa83610e61565b925082611a0a57611a096119b5565b5b828204905092915050565b6000611a2082610e61565b9150611a2b83610e61565b9250828203905081811115611a4357611a426112cf565b5b9291505056fea26469706673582212203d567eb468aaa5f45f4f452b8d6128bacc60da7da211b65e370f195044c983d564736f6c63430008120033",
  "immutableReferences": {},
  "source": "// SPDX-License-Identifier: MIT\r\npragma solidity ^0.8.0;\r\n\r\nimport \"@openzeppelin/contracts/access/Ownable.sol\";\r\nimport \"@openzeppelin/contracts/utils/math/SafeMath.sol\";\r\n\r\ncontract QuadraticFundingDAO is Ownable {\r\n    using SafeMath for uint256;\r\n\r\n    struct Proposal {\r\n        uint256 id;\r\n        address payable proposer;\r\n        string title;\r\n        string description;\r\n        uint256 totalContributions;\r\n        uint256 contributionCount;\r\n    }\r\n\r\n    uint256 private _proposalCounter;\r\n    mapping(uint256 => Proposal) private _proposals;\r\n    mapping(address => uint256) private _contributions;\r\n\r\n    uint256 public fundingStartTime;\r\n    uint256 public fundingEndTime;\r\n    uint256 public totalFunds;\r\n\r\n    event ProposalCreated(uint256 id, address proposer, string title, string description);\r\n    event ContributionMade(uint256 id, address contributor, uint256 amount);\r\n    event FundsDistributed(uint256 id, uint256 amount);\r\n\r\n    constructor(uint256 _fundingStartTime, uint256 _fundingEndTime) {\r\n        require(_fundingStartTime < _fundingEndTime, \"Funding start time must be before end time\");\r\n        fundingStartTime = _fundingStartTime;\r\n        fundingEndTime = _fundingEndTime;\r\n    }\r\n\r\n    modifier onlyDuringFunding() {\r\n        require(block.timestamp >= fundingStartTime && block.timestamp <= fundingEndTime, \"Not within funding period\");\r\n        _;\r\n    }\r\n\r\n    function createProposal(string memory title, string memory description) external onlyDuringFunding {\r\n        _proposalCounter = _proposalCounter.add(1);\r\n\r\n        _proposals[_proposalCounter] = Proposal({\r\n            id: _proposalCounter,\r\n            proposer: payable(msg.sender),\r\n            title: title,\r\n            description: description,\r\n            totalContributions: 0,\r\n            contributionCount: 0\r\n        });\r\n\r\n        emit ProposalCreated(_proposalCounter, msg.sender, title, description);\r\n    }\r\n\r\n    function contribute(uint256 proposalId) external payable onlyDuringFunding {\r\n        require(_proposals[proposalId].id != 0, \"Proposal not found\");\r\n        require(msg.value > 0, \"Contribution must be greater than 0\");\r\n\r\n        uint256 squareRoot = sqrt(msg.value);\r\n        _proposals[proposalId].totalContributions = _proposals[proposalId].totalContributions.add(squareRoot);\r\n        _proposals[proposalId].contributionCount = _proposals[proposalId].contributionCount.add(1);\r\n        _contributions[msg.sender] = _contributions[msg.sender].add(msg.value);\r\n        totalFunds = totalFunds.add(msg.value);\r\n\r\n        emit ContributionMade(proposalId, msg.sender, msg.value);\r\n    }\r\n\r\n    function sqrt(uint256 x) internal pure returns (uint256) {\r\n        if (x == 0) return 0;\r\n        uint256 z = (x + 1) / 2;\r\n        uint256 y = x;\r\n        while (z < y) {\r\n            y = z;\r\n            z = (x / z + z) / 2;\r\n        }\r\n        return y;\r\n    }\r\n\r\n        function getProposal(uint256 proposalId) external view returns (uint256 id, address proposer, string memory title, string memory description, uint256 totalContributions, uint256 contributionCount) {\r\n        require(_proposals[proposalId].id != 0, \"Proposal not found\");\r\n        Proposal storage proposal = _proposals[proposalId];\r\n        return (\r\n            proposal.id,\r\n            proposal.proposer,\r\n            proposal.title,\r\n            proposal.description,\r\n            proposal.totalContributions,\r\n            proposal.contributionCount\r\n        );\r\n    }\r\n\r\n    function getContribution(address contributor) external view returns (uint256) {\r\n        return _contributions[contributor];\r\n    }\r\n\r\n    function withdrawExcessFunds() external onlyOwner {\r\n        require(block.timestamp > fundingEndTime, \"Funding period not over\");\r\n\r\n        uint256 excessFunds = address(this).balance.sub(totalFunds);\r\n        payable(owner()).transfer(excessFunds);\r\n    }\r\n\r\n    function distributeFunds() external onlyOwner {\r\n    require(block.timestamp > fundingEndTime, \"Funding period not over\");\r\n\r\n    uint256 matchingPool = totalFunds;\r\n    uint256 totalSquaredContributions = 0;\r\n\r\n    for (uint256 i = 1; i <= _proposalCounter; i++) {\r\n        Proposal storage proposal = _proposals[i];\r\n        totalSquaredContributions = totalSquaredContributions.add(proposal.totalContributions.mul(proposal.totalContributions));\r\n    }\r\n\r\n    for (uint256 i = 1; i <= _proposalCounter; i++) {\r\n        Proposal storage proposal = _proposals[i];\r\n        uint256 proposalSquaredContributions = proposal.totalContributions.mul(proposal.totalContributions);\r\n        uint256 amount = matchingPool.mul(proposalSquaredContributions).div(totalSquaredContributions);\r\n        proposal.proposer.transfer(amount);\r\n        emit FundsDistributed(proposal.id, amount);\r\n    }\r\n\r\n    totalFunds = 0;\r\n}\r\n\r\n}\r\n\r\n",
  "sourcePath": "D:\\DAOQF\\contracts\\QuadraticFundingDAO.sol",
  "compiler": {
    "name": "solc",
    "version": "0.8.18+commit.87f61d96.Emscripten.clang"
  },
  "schemaVersion": "3.4.13",
  "updatedAt": "2023-05-04T21:20:38.134Z",
  "devdoc": {
    "kind": "dev",
    "methods": {
      "owner()": {
        "details": "Returns the address of the current owner."
      },
      "renounceOwnership()": {
        "details": "Leaves the contract without owner. It will not be possible to call `onlyOwner` functions anymore. Can only be called by the current owner. NOTE: Renouncing ownership will leave the contract without an owner, thereby removing any functionality that is only available to the owner."
      },
      "transferOwnership(address)": {
        "details": "Transfers ownership of the contract to a new account (`newOwner`). Can only be called by the current owner."
      }
    },
    "version": 1
  },
  "userdoc": {
    "kind": "user",
    "methods": {},
    "version": 1
  }
}